{
  "contractName": "CloneFactory",
  "abi": [
    {
      "inputs": [
        {
          "internalType": "address",
          "name": "_lmn",
          "type": "address"
        },
        {
          "internalType": "address",
          "name": "_validator",
          "type": "address"
        },
        {
          "internalType": "address",
          "name": "_proxy",
          "type": "address"
        }
      ],
      "stateMutability": "nonpayable",
      "type": "constructor"
    },
    {
      "anonymous": false,
      "inputs": [
        {
          "indexed": true,
          "internalType": "address",
          "name": "_address",
          "type": "address"
        }
      ],
      "name": "clonefactoryContractPurchased",
      "type": "event"
    },
    {
      "anonymous": false,
      "inputs": [
        {
          "indexed": true,
          "internalType": "address",
          "name": "_address",
          "type": "address"
        },
        {
          "indexed": false,
          "internalType": "string",
          "name": "_pubkey",
          "type": "string"
        }
      ],
      "name": "contractCreated",
      "type": "event"
    },
    {
      "inputs": [
        {
          "internalType": "uint256",
          "name": "",
          "type": "uint256"
        }
      ],
      "name": "rentalContracts",
      "outputs": [
        {
          "internalType": "address",
          "name": "",
          "type": "address"
        }
      ],
      "stateMutability": "view",
      "type": "function"
    },
    {
      "inputs": [
        {
          "internalType": "uint256",
          "name": "_price",
          "type": "uint256"
        },
        {
          "internalType": "uint256",
          "name": "_limit",
          "type": "uint256"
        },
        {
          "internalType": "uint256",
          "name": "_speed",
          "type": "uint256"
        },
        {
          "internalType": "uint256",
          "name": "_length",
          "type": "uint256"
        },
        {
          "internalType": "address",
          "name": "_validator",
          "type": "address"
        },
        {
          "internalType": "string",
          "name": "_pubKey",
          "type": "string"
        }
      ],
      "name": "setCreateNewRentalContract",
      "outputs": [
        {
          "internalType": "address",
          "name": "",
          "type": "address"
        }
      ],
      "stateMutability": "nonpayable",
      "type": "function"
    },
    {
      "inputs": [
        {
          "internalType": "address",
          "name": "contractAddress",
          "type": "address"
        },
        {
          "internalType": "string",
          "name": "_cipherText",
          "type": "string"
        }
      ],
      "name": "setPurchaseRentalContract",
      "outputs": [],
      "stateMutability": "nonpayable",
      "type": "function"
    },
    {
      "inputs": [],
      "name": "getContractList",
      "outputs": [
        {
          "internalType": "address[]",
          "name": "",
          "type": "address[]"
        }
      ],
      "stateMutability": "view",
      "type": "function"
    }
  ],
  "bytecode": "0x60806040523480156200001157600080fd5b506040516200392d3803806200392d8339818101604052810190620000379190620001da565b60006040516200004790620001b5565b604051809103906000f08015801562000064573d6000803e3d6000fd5b509050806000806101000a81548173ffffffffffffffffffffffffffffffffffffffff021916908373ffffffffffffffffffffffffffffffffffffffff16021790555083600360006101000a81548173ffffffffffffffffffffffffffffffffffffffff021916908373ffffffffffffffffffffffffffffffffffffffff16021790555082600160006101000a81548173ffffffffffffffffffffffffffffffffffffffff021916908373ffffffffffffffffffffffffffffffffffffffff16021790555081600260006101000a81548173ffffffffffffffffffffffffffffffffffffffff021916908373ffffffffffffffffffffffffffffffffffffffff16021790555083600660006101000a81548173ffffffffffffffffffffffffffffffffffffffff021916908373ffffffffffffffffffffffffffffffffffffffff1602179055505050505062000289565b61271f806200120e83390190565b600081519050620001d4816200026f565b92915050565b600080600060608486031215620001f657620001f56200026a565b5b60006200020686828701620001c3565b93505060206200021986828701620001c3565b92505060406200022c86828701620001c3565b9150509250925092565b600062000243826200024a565b9050919050565b600073ffffffffffffffffffffffffffffffffffffffff82169050919050565b600080fd5b6200027a8162000236565b81146200028657600080fd5b50565b610f7580620002996000396000f3fe608060405234801561001057600080fd5b506004361061004c5760003560e01c806353da020614610051578063739a835314610081578063867126861461009d57806399acac8c146100cd575b600080fd5b61006b6004803603810190610066919061088a565b6100eb565b6040516100789190610ad2565b60405180910390f35b61009b60048036038101906100969190610801565b61012a565b005b6100b760048036038101906100b291906108e4565b61044c565b6040516100c49190610ad2565b60405180910390f35b6100d56105d4565b6040516100e29190610b4d565b60405180910390f35b600581815481106100fb57600080fd5b906000526020600020016000915054906101000a900473ffffffffffffffffffffffffffffffffffffffff1681565b600082905060008173ffffffffffffffffffffffffffffffffffffffff1663a035b1fe6040518163ffffffff1660e01b815260040160206040518083038186803b15801561017757600080fd5b505afa15801561018b573d6000803e3d6000fd5b505050506040513d601f19601f820116820180604052508101906101af91906108b7565b905080600660009054906101000a900473ffffffffffffffffffffffffffffffffffffffff1673ffffffffffffffffffffffffffffffffffffffff1663dd62ed3e33306040518363ffffffff1660e01b815260040161020f929190610aed565b60206040518083038186803b15801561022757600080fd5b505afa15801561023b573d6000803e3d6000fd5b505050506040513d601f19601f8201168201806040525081019061025f91906108b7565b10156102a0576040517f08c379a000000000000000000000000000000000000000000000000000000000815260040161029790610c01565b60405180910390fd5b6000600660009054906101000a900473ffffffffffffffffffffffffffffffffffffffff1673ffffffffffffffffffffffffffffffffffffffff166323b872dd3387856040518463ffffffff1660e01b815260040161030193929190610b16565b602060405180830381600087803b15801561031b57600080fd5b505af115801561032f573d6000803e3d6000fd5b505050506040513d601f19601f82011682018060405250810190610353919061085d565b905080610395576040517f08c379a000000000000000000000000000000000000000000000000000000000815260040161038c90610bc1565b60405180910390fd5b8273ffffffffffffffffffffffffffffffffffffffff1663ddcb1bf285336040518363ffffffff1660e01b81526004016103d0929190610b91565b600060405180830381600087803b1580156103ea57600080fd5b505af11580156103fe573d6000803e3d6000fd5b505050508473ffffffffffffffffffffffffffffffffffffffff167fbf1df41b401a1bb8d9bd03fb6fe59b6ced0e61a76cdd3d3d511b4d06eb2cdebe60405160405180910390a25050505050565b60008061047860008054906101000a900473ffffffffffffffffffffffffffffffffffffffff16610668565b90508073ffffffffffffffffffffffffffffffffffffffff16633a5d42138989898933600360009054906101000a900473ffffffffffffffffffffffffffffffffffffffff16308c6040518963ffffffff1660e01b81526004016104e3989796959493929190610c21565b600060405180830381600087803b1580156104fd57600080fd5b505af1158015610511573d6000803e3d6000fd5b505050506005819080600181540180825580915050600190039060005260206000200160009091909190916101000a81548173ffffffffffffffffffffffffffffffffffffffff021916908373ffffffffffffffffffffffffffffffffffffffff1602179055508073ffffffffffffffffffffffffffffffffffffffff167f1b08e1646439b7521399d47f93ab6b1ebc92803e155d0b2f2ad2d4702a050804846040516105be9190610b6f565b60405180910390a2809150509695505050505050565b60606000600580548060200260200160405190810160405280929190818152602001828054801561065a57602002820191906000526020600020905b8160009054906101000a900473ffffffffffffffffffffffffffffffffffffffff1673ffffffffffffffffffffffffffffffffffffffff1681526020019060010190808311610610575b505050505090508091505090565b60006040517f3d602d80600a3d3981f3363d3d373d3d3d363d7300000000000000000000000081528260601b60148201527f5af43d82803e903d91602b57fd5bf3000000000000000000000000000000000060288201526037816000f0915050600073ffffffffffffffffffffffffffffffffffffffff168173ffffffffffffffffffffffffffffffffffffffff161415610738576040517f08c379a000000000000000000000000000000000000000000000000000000000815260040161072f90610be1565b60405180910390fd5b919050565b600061075061074b84610cc4565b610c9f565b90508281526020810184848401111561076c5761076b610e39565b5b610777848285610d92565b509392505050565b60008135905061078e81610efa565b92915050565b6000815190506107a381610f11565b92915050565b600082601f8301126107be576107bd610e34565b5b81356107ce84826020860161073d565b91505092915050565b6000813590506107e681610f28565b92915050565b6000815190506107fb81610f28565b92915050565b6000806040838503121561081857610817610e43565b5b60006108268582860161077f565b925050602083013567ffffffffffffffff81111561084757610846610e3e565b5b610853858286016107a9565b9150509250929050565b60006020828403121561087357610872610e43565b5b600061088184828501610794565b91505092915050565b6000602082840312156108a05761089f610e43565b5b60006108ae848285016107d7565b91505092915050565b6000602082840312156108cd576108cc610e43565b5b60006108db848285016107ec565b91505092915050565b60008060008060008060c0878903121561090157610900610e43565b5b600061090f89828a016107d7565b965050602061092089828a016107d7565b955050604061093189828a016107d7565b945050606061094289828a016107d7565b935050608061095389828a0161077f565b92505060a087013567ffffffffffffffff81111561097457610973610e3e565b5b61098089828a016107a9565b9150509295509295509295565b600061099983836109a5565b60208301905092915050565b6109ae81610d4a565b82525050565b6109bd81610d4a565b82525050565b60006109ce82610d05565b6109d88185610d28565b93506109e383610cf5565b8060005b83811015610a145781516109fb888261098d565b9750610a0683610d1b565b9250506001810190506109e7565b5085935050505092915050565b6000610a2c82610d10565b610a368185610d39565b9350610a46818560208601610da1565b610a4f81610e48565b840191505092915050565b6000610a67601683610d39565b9150610a7282610e59565b602082019050919050565b6000610a8a601683610d39565b9150610a9582610e82565b602082019050919050565b6000610aad602683610d39565b9150610ab882610eab565b604082019050919050565b610acc81610d88565b82525050565b6000602082019050610ae760008301846109b4565b92915050565b6000604082019050610b0260008301856109b4565b610b0f60208301846109b4565b9392505050565b6000606082019050610b2b60008301866109b4565b610b3860208301856109b4565b610b456040830184610ac3565b949350505050565b60006020820190508181036000830152610b6781846109c3565b905092915050565b60006020820190508181036000830152610b898184610a21565b905092915050565b60006040820190508181036000830152610bab8185610a21565b9050610bba60208301846109b4565b9392505050565b60006020820190508181036000830152610bda81610a5a565b9050919050565b60006020820190508181036000830152610bfa81610a7d565b9050919050565b60006020820190508181036000830152610c1a81610aa0565b9050919050565b600061010082019050610c37600083018b610ac3565b610c44602083018a610ac3565b610c516040830189610ac3565b610c5e6060830188610ac3565b610c6b60808301876109b4565b610c7860a08301866109b4565b610c8560c08301856109b4565b610c9260e08301846109b4565b9998505050505050505050565b6000610ca9610cba565b9050610cb58282610dd4565b919050565b6000604051905090565b600067ffffffffffffffff821115610cdf57610cde610e05565b5b610ce882610e48565b9050602081019050919050565b6000819050602082019050919050565b600081519050919050565b600081519050919050565b6000602082019050919050565b600082825260208201905092915050565b600082825260208201905092915050565b6000610d5582610d68565b9050919050565b60008115159050919050565b600073ffffffffffffffffffffffffffffffffffffffff82169050919050565b6000819050919050565b82818337600083830152505050565b60005b83811015610dbf578082015181840152602081019050610da4565b83811115610dce576000848401525b50505050565b610ddd82610e48565b810181811067ffffffffffffffff82111715610dfc57610dfb610e05565b5b80604052505050565b7f4e487b7100000000000000000000000000000000000000000000000000000000600052604160045260246000fd5b600080fd5b600080fd5b600080fd5b600080fd5b6000601f19601f8301169050919050565b7f6c756d6569726e207472616e666572206661696c656400000000000000000000600082015250565b7f455243313136373a20637265617465206661696c656400000000000000000000600082015250565b7f6e6f7420617574686f72697a656420746f207370656e6420726571756972656460008201527f2066756e64730000000000000000000000000000000000000000000000000000602082015250565b610f0381610d4a565b8114610f0e57600080fd5b50565b610f1a81610d5c565b8114610f2557600080fd5b50565b610f3181610d88565b8114610f3c57600080fd5b5056fea264697066735822122045d876a3576316680e5680d4758438fadb44d91aa9abbbb5b2f93a05d1f7666664736f6c63430008070033608060405234801561001057600080fd5b50600180819055506126f8806100276000396000f3fe608060405234801561001057600080fd5b50600436106101215760003560e01c80638b7e4b13116100ad578063c5095d6811610071578063c5095d68146102c4578063ca3225fa146102e2578063ce0c722a14610308578063ddcb1bf214610326578063f1a6e3011461034257610121565b80638b7e4b13146102305780638e2e6d5d1461024e578063a035b1fe1461026a578063a4d66daf14610288578063c20906ac146102a657610121565b80631f7b6d32116100f45780631f7b6d321461019e5780633a5d4213146101bc5780637150d8ae146101d8578063719e6b5b146101f657806385209ee01461021257610121565b806308551a5314610126578063089aa8a2146101445780630a61e2d91461016257806316713b3714610180575b600080fd5b61012e61035e565b60405161013b9190611c40565b60405180910390f35b61014c610384565b6040516101599190611c40565b60405180910390f35b61016a6103aa565b6040516101779190611ed5565b60405180910390f35b6101886103b0565b6040516101959190611ed5565b60405180910390f35b6101a66103b6565b6040516101b39190611ed5565b60405180910390f35b6101d660048036038101906101d19190611905565b6103bc565b005b6101e06105b0565b6040516101ed9190611c40565b60405180910390f35b610210600480360381019061020b9190611806565b6105d6565b005b61021a61072c565b6040516102279190611c84565b60405180910390f35b61023861073f565b6040516102459190611d33565b60405180910390f35b610268600480360381019061026391906118ab565b6107cd565b005b610272610bd7565b60405161027f9190611ed5565b60405180910390f35b610290610bdd565b60405161029d9190611ed5565b60405180910390f35b6102ae610be3565b6040516102bb9190611ed5565b60405180910390f35b6102cc610be9565b6040516102d99190611ed5565b60405180910390f35b6102ea610bef565b6040516102ff99989796959493929190611c9f565b60405180910390f35b610310610d0d565b60405161031d9190611c40565b60405180910390f35b610340600480360381019061033b919061184f565b610d33565b005b61035c600480360381019061035791906119bb565b610f5b565b005b600e60009054906101000a900473ffffffffffffffffffffffffffffffffffffffff1681565b600260009054906101000a900473ffffffffffffffffffffffffffffffffffffffff1681565b60055481565b60065481565b600b5481565b600060019054906101000a900460ff16806103e2575060008054906101000a900460ff16155b610421576040517f08c379a000000000000000000000000000000000000000000000000000000000815260040161041890611e55565b60405180910390fd5b60008060019054906101000a900460ff161590508015610471576001600060016101000a81548160ff02191690831515021790555060016000806101000a81548160ff0219169083151502179055505b886008819055508760098190555086600a8190555085600b8190555084600e60006101000a81548173ffffffffffffffffffffffffffffffffffffffff021916908373ffffffffffffffffffffffffffffffffffffffff16021790555082600f60006101000a81548173ffffffffffffffffffffffffffffffffffffffff021916908373ffffffffffffffffffffffffffffffffffffffff16021790555081601060006101000a81548173ffffffffffffffffffffffffffffffffffffffff021916908373ffffffffffffffffffffffffffffffffffffffff1602179055506000600760146101000a81548160ff0219169083600181111561057657610575612191565b5b021790555061058484611155565b80156105a55760008060016101000a81548160ff0219169083151502179055505b505050505050505050565b600d60009054906101000a900473ffffffffffffffffffffffffffffffffffffffff1681565b600d60009054906101000a900473ffffffffffffffffffffffffffffffffffffffff1673ffffffffffffffffffffffffffffffffffffffff163373ffffffffffffffffffffffffffffffffffffffff1614610666576040517f08c379a000000000000000000000000000000000000000000000000000000000815260040161065d90611d55565b60405180910390fd5b60018081111561067957610678612191565b5b600760149054906101000a900460ff16600181111561069b5761069a612191565b5b146106db576040517f08c379a00000000000000000000000000000000000000000000000000000000081526004016106d290611e95565b60405180910390fd5b80601190805190602001906106f1929190611672565b507f2301ef7d9f42b857543faf9e285b5807e028d4ae99810ea7fe0aadda3a717e9d816040516107219190611d33565b60405180910390a150565b600760149054906101000a900460ff1681565b6011805461074c906120d0565b80601f0160208091040260200160405190810160405280929190818152602001828054610778906120d0565b80156107c55780601f1061079a576101008083540402835291602001916107c5565b820191906000526020600020905b8154815290600101906020018083116107a857829003601f168201915b505050505081565b600081141561095457600d60009054906101000a900473ffffffffffffffffffffffffffffffffffffffff1673ffffffffffffffffffffffffffffffffffffffff163373ffffffffffffffffffffffffffffffffffffffff16148061087f5750601060009054906101000a900473ffffffffffffffffffffffffffffffffffffffff1673ffffffffffffffffffffffffffffffffffffffff163373ffffffffffffffffffffffffffffffffffffffff16145b6108be576040517f08c379a00000000000000000000000000000000000000000000000000000000081526004016108b590611dd5565b60405180910390fd5b6000600c54426108ce9190611fed565b90506000600b5482600b546108e39190611fed565b6008546108f09190611f93565b6108fa9190611f62565b905060008160085461090c9190611fed565b905061091881836111fc565b6109206113a4565b7ff5e1a452bb76d7335225182a97ad694be2c7b4b5d75dcffb67ddf15db95f484460405160405180910390a1505050610bd4565b6001811415610a3b576000600c544261096d9190611fed565b90506000600b5482600b546109829190611fed565b60085461098f9190611f93565b6109999190611f62565b9050600e60009054906101000a900473ffffffffffffffffffffffffffffffffffffffff1673ffffffffffffffffffffffffffffffffffffffff163373ffffffffffffffffffffffffffffffffffffffff1614610a2b576040517f08c379a0000000000000000000000000000000000000000000000000000000008152600401610a2290611eb5565b60405180910390fd5b610a348161145a565b5050610bd3565b6002811415610ad5576000600c5442610a549190611fed565b9050600b54811015610a9b576040517f08c379a0000000000000000000000000000000000000000000000000000000008152600401610a9290611d75565b60405180910390fd5b610aa36113a4565b7ff5e1a452bb76d7335225182a97ad694be2c7b4b5d75dcffb67ddf15db95f484460405160405180910390a150610bd2565b6003811415610b8d576000600c5442610aee9190611fed565b9050600b54811015610b35576040517f08c379a0000000000000000000000000000000000000000000000000000000008152600401610b2c90611d75565b60405180910390fd5b6003821415610b53576000806008549050610b5081836111fc565b50505b610b5b6113a4565b7ff5e1a452bb76d7335225182a97ad694be2c7b4b5d75dcffb67ddf15db95f484460405160405180910390a150610bd1565b60048110610bd0576040517f08c379a0000000000000000000000000000000000000000000000000000000008152600401610bc790611e35565b60405180910390fd5b5b5b5b5b50565b60085481565b60095481565b600a5481565b600c5481565b6000806000806000806000806060600760149054906101000a900460ff16600854600954600a54600b54600c54600d60009054906101000a900473ffffffffffffffffffffffffffffffffffffffff16600e60009054906101000a900473ffffffffffffffffffffffffffffffffffffffff166011808054610c70906120d0565b80601f0160208091040260200160405190810160405280929190818152602001828054610c9c906120d0565b8015610ce95780601f10610cbe57610100808354040283529160200191610ce9565b820191906000526020600020905b815481529060010190602001808311610ccc57829003601f168201915b50505050509050985098509850985098509850985098509850909192939495969798565b600360009054906101000a900473ffffffffffffffffffffffffffffffffffffffff1681565b60006001811115610d4757610d46612191565b5b600760149054906101000a900460ff166001811115610d6957610d68612191565b5b14610da9576040517f08c379a0000000000000000000000000000000000000000000000000000000008152600401610da090611df5565b60405180910390fd5b600f60009054906101000a900473ffffffffffffffffffffffffffffffffffffffff1673ffffffffffffffffffffffffffffffffffffffff163373ffffffffffffffffffffffffffffffffffffffff1614610e39576040517f08c379a0000000000000000000000000000000000000000000000000000000008152600401610e3090611e15565b60405180910390fd5b8160119080519060200190610e4f929190611672565b5080600d60006101000a81548173ffffffffffffffffffffffffffffffffffffffff021916908373ffffffffffffffffffffffffffffffffffffffff16021790555042600c819055506001600760146101000a81548160ff02191690836001811115610ebe57610ebd612191565b5b0217905550610f14600e60009054906101000a900473ffffffffffffffffffffffffffffffffffffffff16600d60009054906101000a900473ffffffffffffffffffffffffffffffffffffffff166008546115e4565b3373ffffffffffffffffffffffffffffffffffffffff167f0c00d1d6cea0bd55f7d3b6e92ef60237b117b050185fc2816c708fd45f45e5bb60405160405180910390a25050565b6000600c5442610f6b9190611fed565b9050600e60009054906101000a900473ffffffffffffffffffffffffffffffffffffffff1673ffffffffffffffffffffffffffffffffffffffff163373ffffffffffffffffffffffffffffffffffffffff1614610ffd576040517f08c379a0000000000000000000000000000000000000000000000000000000008152600401610ff490611e75565b60405180910390fd5b6001808111156110105761100f612191565b5b600760149054906101000a900460ff16600181111561103257611031612191565b5b14611072576040517f08c379a000000000000000000000000000000000000000000000000000000000815260040161106990611d95565b60405180910390fd5b60028214806110815750600382145b6110c0576040517f08c379a00000000000000000000000000000000000000000000000000000000081526004016110b790611db5565b60405180910390fd5b600b54811015611105576040517f08c379a00000000000000000000000000000000000000000000000000000000081526004016110fc90611d75565b60405180910390fd5b856008819055508460098190555083600a8190555082600b819055507f03e052767f275c0c51cc93a76255d42498341feb7a5beef7cc11fd57c5b6681860405160405180910390a1505050505050565b80600460006101000a81548173ffffffffffffffffffffffffffffffffffffffff021916908373ffffffffffffffffffffffffffffffffffffffff160217905550600460009054906101000a900473ffffffffffffffffffffffffffffffffffffffff16600760006101000a81548173ffffffffffffffffffffffffffffffffffffffff021916908373ffffffffffffffffffffffffffffffffffffffff16021790555050565b600760009054906101000a900473ffffffffffffffffffffffffffffffffffffffff1673ffffffffffffffffffffffffffffffffffffffff1663a9059cbb600360009054906101000a900473ffffffffffffffffffffffffffffffffffffffff16846040518363ffffffff1660e01b815260040161127b929190611c5b565b602060405180830381600087803b15801561129557600080fd5b505af11580156112a9573d6000803e3d6000fd5b505050506040513d601f19601f820116820180604052508101906112cd91906117d9565b50600760009054906101000a900473ffffffffffffffffffffffffffffffffffffffff1673ffffffffffffffffffffffffffffffffffffffff1663a9059cbb600260009054906101000a900473ffffffffffffffffffffffffffffffffffffffff16836040518363ffffffff1660e01b815260040161134d929190611c5b565b602060405180830381600087803b15801561136757600080fd5b505af115801561137b573d6000803e3d6000fd5b505050506040513d601f19601f8201168201806040525081019061139f91906117d9565b505050565b600e60009054906101000a900473ffffffffffffffffffffffffffffffffffffffff16600d60006101000a81548173ffffffffffffffffffffffffffffffffffffffff021916908373ffffffffffffffffffffffffffffffffffffffff160217905550604051806020016040528060008152506011908051906020019061142c929190611672565b506000600760146101000a81548160ff0219169083600181111561145357611452612191565b5b0217905550565b600760009054906101000a900473ffffffffffffffffffffffffffffffffffffffff1673ffffffffffffffffffffffffffffffffffffffff1663a9059cbb600360009054906101000a900473ffffffffffffffffffffffffffffffffffffffff1683600760009054906101000a900473ffffffffffffffffffffffffffffffffffffffff1673ffffffffffffffffffffffffffffffffffffffff166370a08231306040518263ffffffff1660e01b81526004016115179190611c40565b60206040518083038186803b15801561152f57600080fd5b505afa158015611543573d6000803e3d6000fd5b505050506040513d601f19601f8201168201806040525081019061156791906118d8565b6115719190611fed565b6040518363ffffffff1660e01b815260040161158e929190611c5b565b602060405180830381600087803b1580156115a857600080fd5b505af11580156115bc573d6000803e3d6000fd5b505050506040513d601f19601f820116820180604052508101906115e091906117d9565b5050565b82600360006101000a81548173ffffffffffffffffffffffffffffffffffffffff021916908373ffffffffffffffffffffffffffffffffffffffff16021790555081600260006101000a81548173ffffffffffffffffffffffffffffffffffffffff021916908373ffffffffffffffffffffffffffffffffffffffff16021790555080600581905550505050565b82805461167e906120d0565b90600052602060002090601f0160209004810192826116a057600085556116e7565b82601f106116b957805160ff19168380011785556116e7565b828001600101855582156116e7579182015b828111156116e65782518255916020019190600101906116cb565b5b5090506116f491906116f8565b5090565b5b808211156117115760008160009055506001016116f9565b5090565b600061172861172384611f15565b611ef0565b90508281526020810184848401111561174457611743612223565b5b61174f84828561208e565b509392505050565b6000813590506117668161267d565b92915050565b60008151905061177b81612694565b92915050565b600082601f8301126117965761179561221e565b5b81356117a6848260208601611715565b91505092915050565b6000813590506117be816126ab565b92915050565b6000815190506117d3816126ab565b92915050565b6000602082840312156117ef576117ee61222d565b5b60006117fd8482850161176c565b91505092915050565b60006020828403121561181c5761181b61222d565b5b600082013567ffffffffffffffff81111561183a57611839612228565b5b61184684828501611781565b91505092915050565b600080604083850312156118665761186561222d565b5b600083013567ffffffffffffffff81111561188457611883612228565b5b61189085828601611781565b92505060206118a185828601611757565b9150509250929050565b6000602082840312156118c1576118c061222d565b5b60006118cf848285016117af565b91505092915050565b6000602082840312156118ee576118ed61222d565b5b60006118fc848285016117c4565b91505092915050565b600080600080600080600080610100898b0312156119265761192561222d565b5b60006119348b828c016117af565b98505060206119458b828c016117af565b97505060406119568b828c016117af565b96505060606119678b828c016117af565b95505060806119788b828c01611757565b94505060a06119898b828c01611757565b93505060c061199a8b828c01611757565b92505060e06119ab8b828c01611757565b9150509295985092959890939650565b600080600080600060a086880312156119d7576119d661222d565b5b60006119e5888289016117af565b95505060206119f6888289016117af565b9450506040611a07888289016117af565b9350506060611a18888289016117af565b9250506080611a29888289016117af565b9150509295509295909350565b611a3f81612021565b82525050565b611a4e8161207c565b82525050565b6000611a5f82611f46565b611a698185611f51565b9350611a7981856020860161209d565b611a8281612232565b840191505092915050565b6000611a9a604383611f51565b9150611aa582612243565b606082019050919050565b6000611abd602a83611f51565b9150611ac8826122b8565b604082019050919050565b6000611ae0602b83611f51565b9150611aeb82612307565b604082019050919050565b6000611b03602883611f51565b9150611b0e82612356565b604082019050919050565b6000611b26603b83611f51565b9150611b31826123a5565b604082019050919050565b6000611b49602583611f51565b9150611b54826123f4565b604082019050919050565b6000611b6c603a83611f51565b9150611b7782612443565b604082019050919050565b6000611b8f602983611f51565b9150611b9a82612492565b604082019050919050565b6000611bb2602e83611f51565b9150611bbd826124e1565b604082019050919050565b6000611bd5604383611f51565b9150611be082612530565b606082019050919050565b6000611bf8602883611f51565b9150611c03826125a5565b604082019050919050565b6000611c1b604183611f51565b9150611c26826125f4565b606082019050919050565b611c3a81612072565b82525050565b6000602082019050611c556000830184611a36565b92915050565b6000604082019050611c706000830185611a36565b611c7d6020830184611c31565b9392505050565b6000602082019050611c996000830184611a45565b92915050565b600061012082019050611cb5600083018c611a45565b611cc2602083018b611c31565b611ccf604083018a611c31565b611cdc6060830189611c31565b611ce96080830188611c31565b611cf660a0830187611c31565b611d0360c0830186611a36565b611d1060e0830185611a36565b818103610100830152611d238184611a54565b90509a9950505050505050505050565b60006020820190508181036000830152611d4d8184611a54565b905092915050565b60006020820190508181036000830152611d6e81611a8d565b9050919050565b60006020820190508181036000830152611d8e81611ab0565b9050919050565b60006020820190508181036000830152611dae81611ad3565b9050919050565b60006020820190508181036000830152611dce81611af6565b9050919050565b60006020820190508181036000830152611dee81611b19565b9050919050565b60006020820190508181036000830152611e0e81611b3c565b9050919050565b60006020820190508181036000830152611e2e81611b5f565b9050919050565b60006020820190508181036000830152611e4e81611b82565b9050919050565b60006020820190508181036000830152611e6e81611ba5565b9050919050565b60006020820190508181036000830152611e8e81611bc8565b9050919050565b60006020820190508181036000830152611eae81611beb565b9050919050565b60006020820190508181036000830152611ece81611c0e565b9050919050565b6000602082019050611eea6000830184611c31565b92915050565b6000611efa611f0b565b9050611f068282612102565b919050565b6000604051905090565b600067ffffffffffffffff821115611f3057611f2f6121ef565b5b611f3982612232565b9050602081019050919050565b600081519050919050565b600082825260208201905092915050565b6000611f6d82612072565b9150611f7883612072565b925082611f8857611f87612162565b5b828204905092915050565b6000611f9e82612072565b9150611fa983612072565b9250817fffffffffffffffffffffffffffffffffffffffffffffffffffffffffffffffff0483118215151615611fe257611fe1612133565b5b828202905092915050565b6000611ff882612072565b915061200383612072565b92508282101561201657612015612133565b5b828203905092915050565b600061202c82612052565b9050919050565b60008115159050919050565b600081905061204d82612669565b919050565b600073ffffffffffffffffffffffffffffffffffffffff82169050919050565b6000819050919050565b60006120878261203f565b9050919050565b82818337600083830152505050565b60005b838110156120bb5780820151818401526020810190506120a0565b838111156120ca576000848401525b50505050565b600060028204905060018216806120e857607f821691505b602082108114156120fc576120fb6121c0565b5b50919050565b61210b82612232565b810181811067ffffffffffffffff8211171561212a576121296121ef565b5b80604052505050565b7f4e487b7100000000000000000000000000000000000000000000000000000000600052601160045260246000fd5b7f4e487b7100000000000000000000000000000000000000000000000000000000600052601260045260246000fd5b7f4e487b7100000000000000000000000000000000000000000000000000000000600052602160045260246000fd5b7f4e487b7100000000000000000000000000000000000000000000000000000000600052602260045260246000fd5b7f4e487b7100000000000000000000000000000000000000000000000000000000600052604160045260246000fd5b600080fd5b600080fd5b600080fd5b600080fd5b6000601f19601f8301169050919050565b7f74686973206163636f756e74206973206e6f7420617574686f72697a6564207460008201527f6f2075706461746520746865206369706865727465787420696e666f726d617460208201527f696f6e0000000000000000000000000000000000000000000000000000000000604082015250565b7f74686520636f6e7472616374206861732079657420746f20626520636172726960008201527f656420746f207465726d00000000000000000000000000000000000000000000602082015250565b7f74686973206973206163636f756e74206973206e6f7420696e2074686520727560008201527f6e6e696e67207374617465000000000000000000000000000000000000000000602082015250565b7f796f752063616e206f6e6c792075736520636c6f73656f7574206f7074696f6e60008201527f732032206f722033000000000000000000000000000000000000000000000000602082015250565b7f74686973206163636f756e74206973206e6f7420617574686f72697a6564207460008201527f6f207472696767657220616e206561726c7920636c6f73656f75740000000000602082015250565b7f636f6e7472616374206973206e6f7420696e20616e20617661696c61626c652060008201527f7374617465000000000000000000000000000000000000000000000000000000602082015250565b7f746869732061646472657373206973206e6f7420617070726f76656420746f2060008201527f63616c6c207468652070757263686173652066756e6374696f6e000000000000602082015250565b7f796f75206d757374206d616b6520612073656c656374696f6e2062657477656560008201527f6e203020616e6420330000000000000000000000000000000000000000000000602082015250565b7f496e697469616c697a61626c653a20636f6e747261637420697320616c72656160008201527f647920696e697469616c697a6564000000000000000000000000000000000000602082015250565b7f74686973206973206163636f756e74206973206e6f7420617574686f72697a6560008201527f6420746f207570646174652074686520636f6e747261637420706172616d657460208201527f6572730000000000000000000000000000000000000000000000000000000000604082015250565b7f74686520636f6e7472616374206973206e6f7420696e207468652072756e6e6960008201527f6e67207374617465000000000000000000000000000000000000000000000000602082015250565b7f74686973206163636f756e74206973206e6f7420617574686f72697a6564207460008201527f6f20747269676765722061206d69642d636f6e747261637420636c6f73656f7560208201527f7400000000000000000000000000000000000000000000000000000000000000604082015250565b6002811061267a57612679612191565b5b50565b61268681612021565b811461269157600080fd5b50565b61269d81612033565b81146126a857600080fd5b50565b6126b481612072565b81146126bf57600080fd5b5056fea26469706673582212204ffe865d29cc971e8a7ce88cda8ea297846c3f3602fae1067ef5fc44461f206864736f6c63430008070033",
  "immutableReferences": {},
  "source": "//SPDX-License-Identifier: MIT\n\npragma solidity >0.8.0;\n\nimport \"@openzeppelin/contracts/proxy/Clones.sol\";\nimport './Implementation.sol';\nimport './LumerinToken.sol';\n\n/// @title CloneFactory\n/// @author Josh Kean (Lumerin)\n/// @notice Variables passed into contract initializer are subject to change based on the design of the hashrate contract\n\n//CloneFactory now responsible for minting, purchasing, and tracking contracts\ncontract CloneFactory {\n\taddress baseImplementation;\n\taddress validator;\n\taddress proxy;\n\taddress lmnDeploy;\n\taddress webfacingAddress;\n\taddress[] public rentalContracts; //dynamically allocated list of rental contracts\n\tLumerin lumerin;\n\n\tconstructor(address _lmn, address _validator, address _proxy) {\n\t\tImplementation _imp = new Implementation();\n\t\tbaseImplementation = address(_imp);\n\t\tlmnDeploy = _lmn; //deployed address of lumeirn token\n\t\tvalidator = _validator;\n\t\tproxy = _proxy;\n\t\tlumerin = Lumerin(_lmn);\n\t}\n\n\tevent contractCreated(address indexed _address, string _pubkey); //emitted whenever a contract is created\n\tevent clonefactoryContractPurchased(address indexed _address); //emitted whenever a contract is purchased\n\n\t//function to create a new Implementation contract\n\tfunction setCreateNewRentalContract(\n\t\tuint _price,\n\t\tuint _limit,\n\t\tuint _speed,\n\t\tuint _length,\n\t\taddress _validator,\n\t\tstring memory _pubKey\n\t) external returns(address){\n\t\taddress _newContract = Clones.clone(baseImplementation);\n\t\tImplementation(_newContract).initialize(_price, _limit, _speed, _length, msg.sender, lmnDeploy, address(this), _validator);\n\t\trentalContracts.push(_newContract); //add clone to list of contracts\n\t\temit contractCreated(_newContract, _pubKey); //broadcasts a new contract and the pubkey to use for encryption\n\t\treturn _newContract;\n\t}\n\n\n\t//function to purchase a hashrate contract\n\t//requires the clonefactory to be able to spend tokens on behalf of the purchaser\n\tfunction setPurchaseRentalContract(\n\t\taddress contractAddress,\n\t\tstring memory _cipherText\n\t) external {\n\t\tImplementation targetContract = Implementation(contractAddress);\n\t\tuint _price = targetContract.price();\n\t\trequire(lumerin.allowance(msg.sender, address(this)) >= _price, \"not authorized to spend required funds\");\n\t\tbool tokensTransfered = lumerin.transferFrom(msg.sender, contractAddress, _price);\n\t\trequire(tokensTransfered, \"lumeirn tranfer failed\");\n\t\ttargetContract.setPurchaseContract(\n\t\t\t_cipherText, msg.sender\n\t\t);\n\t\temit clonefactoryContractPurchased(contractAddress);\n\t}\n\n\n\tfunction getContractList() public view returns(address[] memory) {\n\t\taddress[] memory _rentalContracts = rentalContracts;\n\t\treturn _rentalContracts;\n\t}\n\n}\n",
  "sourcePath": "/Users/joshkean/Documents/smart_contracts/validator/contracts/CloneFactory.sol",
  "compiler": {
    "name": "solc",
    "version": "0.8.7+commit.e28d00a7.Emscripten.clang"
  },
  "schemaVersion": "3.4.2",
  "updatedAt": "2022-02-24T20:21:56.514Z",
  "devdoc": {
    "author": "Josh Kean (Lumerin)",
    "kind": "dev",
    "methods": {},
    "title": "CloneFactory",
    "version": 1
  },
  "userdoc": {
    "kind": "user",
    "methods": {},
    "notice": "Variables passed into contract initializer are subject to change based on the design of the hashrate contract",
    "version": 1
  }
}