{
  "_format": "hh-sol-artifact-1",
  "contractName": "Lumerin",
  "sourceName": "contracts/LumerinToken.sol",
  "abi": [
    {
      "inputs": [],
      "stateMutability": "nonpayable",
      "type": "constructor"
    },
    {
      "anonymous": false,
      "inputs": [
        {
          "indexed": true,
          "internalType": "address",
          "name": "owner",
          "type": "address"
        },
        {
          "indexed": true,
          "internalType": "address",
          "name": "spender",
          "type": "address"
        },
        {
          "indexed": false,
          "internalType": "uint256",
          "name": "value",
          "type": "uint256"
        }
      ],
      "name": "Approval",
      "type": "event"
    },
    {
      "anonymous": false,
      "inputs": [
        {
          "indexed": true,
          "internalType": "address",
          "name": "previousOwner",
          "type": "address"
        },
        {
          "indexed": true,
          "internalType": "address",
          "name": "newOwner",
          "type": "address"
        }
      ],
      "name": "OwnershipTransferred",
      "type": "event"
    },
    {
      "anonymous": false,
      "inputs": [
        {
          "indexed": false,
          "internalType": "address",
          "name": "account",
          "type": "address"
        }
      ],
      "name": "Paused",
      "type": "event"
    },
    {
      "anonymous": false,
      "inputs": [
        {
          "indexed": true,
          "internalType": "address",
          "name": "from",
          "type": "address"
        },
        {
          "indexed": true,
          "internalType": "address",
          "name": "to",
          "type": "address"
        },
        {
          "indexed": false,
          "internalType": "uint256",
          "name": "value",
          "type": "uint256"
        }
      ],
      "name": "Transfer",
      "type": "event"
    },
    {
      "anonymous": false,
      "inputs": [
        {
          "indexed": false,
          "internalType": "address",
          "name": "account",
          "type": "address"
        }
      ],
      "name": "Unpaused",
      "type": "event"
    },
    {
      "inputs": [
        {
          "internalType": "address",
          "name": "owner",
          "type": "address"
        },
        {
          "internalType": "address",
          "name": "spender",
          "type": "address"
        }
      ],
      "name": "allowance",
      "outputs": [
        {
          "internalType": "uint256",
          "name": "",
          "type": "uint256"
        }
      ],
      "stateMutability": "view",
      "type": "function"
    },
    {
      "inputs": [
        {
          "internalType": "address",
          "name": "spender",
          "type": "address"
        },
        {
          "internalType": "uint256",
          "name": "amount",
          "type": "uint256"
        }
      ],
      "name": "approve",
      "outputs": [
        {
          "internalType": "bool",
          "name": "",
          "type": "bool"
        }
      ],
      "stateMutability": "nonpayable",
      "type": "function"
    },
    {
      "inputs": [
        {
          "internalType": "address",
          "name": "account",
          "type": "address"
        }
      ],
      "name": "balanceOf",
      "outputs": [
        {
          "internalType": "uint256",
          "name": "",
          "type": "uint256"
        }
      ],
      "stateMutability": "view",
      "type": "function"
    },
    {
      "inputs": [
        {
          "internalType": "uint256",
          "name": "amount",
          "type": "uint256"
        }
      ],
      "name": "burn",
      "outputs": [],
      "stateMutability": "nonpayable",
      "type": "function"
    },
    {
      "inputs": [
        {
          "internalType": "address",
          "name": "account",
          "type": "address"
        },
        {
          "internalType": "uint256",
          "name": "amount",
          "type": "uint256"
        }
      ],
      "name": "burnFrom",
      "outputs": [],
      "stateMutability": "nonpayable",
      "type": "function"
    },
    {
      "inputs": [],
      "name": "decimals",
      "outputs": [
        {
          "internalType": "uint8",
          "name": "",
          "type": "uint8"
        }
      ],
      "stateMutability": "view",
      "type": "function"
    },
    {
      "inputs": [
        {
          "internalType": "address",
          "name": "spender",
          "type": "address"
        },
        {
          "internalType": "uint256",
          "name": "subtractedValue",
          "type": "uint256"
        }
      ],
      "name": "decreaseAllowance",
      "outputs": [
        {
          "internalType": "bool",
          "name": "",
          "type": "bool"
        }
      ],
      "stateMutability": "nonpayable",
      "type": "function"
    },
    {
      "inputs": [
        {
          "internalType": "address",
          "name": "spender",
          "type": "address"
        },
        {
          "internalType": "uint256",
          "name": "addedValue",
          "type": "uint256"
        }
      ],
      "name": "increaseAllowance",
      "outputs": [
        {
          "internalType": "bool",
          "name": "",
          "type": "bool"
        }
      ],
      "stateMutability": "nonpayable",
      "type": "function"
    },
    {
      "inputs": [],
      "name": "name",
      "outputs": [
        {
          "internalType": "string",
          "name": "",
          "type": "string"
        }
      ],
      "stateMutability": "view",
      "type": "function"
    },
    {
      "inputs": [],
      "name": "owner",
      "outputs": [
        {
          "internalType": "address",
          "name": "",
          "type": "address"
        }
      ],
      "stateMutability": "view",
      "type": "function"
    },
    {
      "inputs": [],
      "name": "pause",
      "outputs": [],
      "stateMutability": "nonpayable",
      "type": "function"
    },
    {
      "inputs": [],
      "name": "paused",
      "outputs": [
        {
          "internalType": "bool",
          "name": "",
          "type": "bool"
        }
      ],
      "stateMutability": "view",
      "type": "function"
    },
    {
      "inputs": [],
      "name": "renounceOwnership",
      "outputs": [],
      "stateMutability": "nonpayable",
      "type": "function"
    },
    {
      "inputs": [],
      "name": "symbol",
      "outputs": [
        {
          "internalType": "string",
          "name": "",
          "type": "string"
        }
      ],
      "stateMutability": "view",
      "type": "function"
    },
    {
      "inputs": [],
      "name": "totalSupply",
      "outputs": [
        {
          "internalType": "uint256",
          "name": "",
          "type": "uint256"
        }
      ],
      "stateMutability": "view",
      "type": "function"
    },
    {
      "inputs": [
        {
          "internalType": "address",
          "name": "to",
          "type": "address"
        },
        {
          "internalType": "uint256",
          "name": "amount",
          "type": "uint256"
        }
      ],
      "name": "transfer",
      "outputs": [
        {
          "internalType": "bool",
          "name": "",
          "type": "bool"
        }
      ],
      "stateMutability": "nonpayable",
      "type": "function"
    },
    {
      "inputs": [
        {
          "internalType": "address",
          "name": "from",
          "type": "address"
        },
        {
          "internalType": "address",
          "name": "to",
          "type": "address"
        },
        {
          "internalType": "uint256",
          "name": "amount",
          "type": "uint256"
        }
      ],
      "name": "transferFrom",
      "outputs": [
        {
          "internalType": "bool",
          "name": "",
          "type": "bool"
        }
      ],
      "stateMutability": "nonpayable",
      "type": "function"
    },
    {
      "inputs": [
        {
          "internalType": "address",
          "name": "newOwner",
          "type": "address"
        }
      ],
      "name": "transferOwnership",
      "outputs": [],
      "stateMutability": "nonpayable",
      "type": "function"
    },
    {
      "inputs": [],
      "name": "unpause",
      "outputs": [],
      "stateMutability": "nonpayable",
      "type": "function"
    }
  ],
  "bytecode": "0x60806040523480156200001157600080fd5b506040518060400160405280600781526020017f4c756d6572696e000000000000000000000000000000000000000000000000008152506040518060400160405280600381526020017f4c4d520000000000000000000000000000000000000000000000000000000000815250816003908051906020019062000096929190620003e5565b508060049080519060200190620000af929190620003e5565b5050506000600560006101000a81548160ff021916908315150217905550620000ed620000e16200010d60201b60201c565b6200011560201b60201c565b620001073367016345785d8a0000620001db60201b60201c565b620006b3565b600033905090565b6000600560019054906101000a900473ffffffffffffffffffffffffffffffffffffffff16905081600560016101000a81548173ffffffffffffffffffffffffffffffffffffffff021916908373ffffffffffffffffffffffffffffffffffffffff1602179055508173ffffffffffffffffffffffffffffffffffffffff168173ffffffffffffffffffffffffffffffffffffffff167f8be0079c531659141344cd1fd0a4f28419497f9722a3daafe3b4186f6b6457e060405160405180910390a35050565b600073ffffffffffffffffffffffffffffffffffffffff168273ffffffffffffffffffffffffffffffffffffffff1614156200024e576040517f08c379a0000000000000000000000000000000000000000000000000000000008152600401620002459062000516565b60405180910390fd5b62000262600083836200035460201b60201c565b806002600082825462000276919062000566565b92505081905550806000808473ffffffffffffffffffffffffffffffffffffffff1673ffffffffffffffffffffffffffffffffffffffff1681526020019081526020016000206000828254620002cd919062000566565b925050819055508173ffffffffffffffffffffffffffffffffffffffff16600073ffffffffffffffffffffffffffffffffffffffff167fddf252ad1be2c89b69c2b068fc378daa952ba7f163c4a11628f55a4df523b3ef8360405162000334919062000538565b60405180910390a36200035060008383620003c460201b60201c565b5050565b62000364620003c960201b60201c565b15620003a7576040517f08c379a00000000000000000000000000000000000000000000000000000000081526004016200039e90620004f4565b60405180910390fd5b620003bf838383620003e060201b62000aac1760201c565b505050565b505050565b6000600560009054906101000a900460ff16905090565b505050565b828054620003f390620005cd565b90600052602060002090601f01602090048101928262000417576000855562000463565b82601f106200043257805160ff191683800117855562000463565b8280016001018555821562000463579182015b828111156200046257825182559160200191906001019062000445565b5b50905062000472919062000476565b5090565b5b808211156200049157600081600090555060010162000477565b5090565b6000620004a460108362000555565b9150620004b18262000661565b602082019050919050565b6000620004cb601f8362000555565b9150620004d8826200068a565b602082019050919050565b620004ee81620005c3565b82525050565b600060208201905081810360008301526200050f8162000495565b9050919050565b600060208201905081810360008301526200053181620004bc565b9050919050565b60006020820190506200054f6000830184620004e3565b92915050565b600082825260208201905092915050565b60006200057382620005c3565b91506200058083620005c3565b9250827fffffffffffffffffffffffffffffffffffffffffffffffffffffffffffffffff03821115620005b857620005b762000603565b5b828201905092915050565b6000819050919050565b60006002820490506001821680620005e657607f821691505b60208210811415620005fd57620005fc62000632565b5b50919050565b7f4e487b7100000000000000000000000000000000000000000000000000000000600052601160045260246000fd5b7f4e487b7100000000000000000000000000000000000000000000000000000000600052602260045260246000fd5b7f5061757361626c653a2070617573656400000000000000000000000000000000600082015250565b7f45524332303a206d696e7420746f20746865207a65726f206164647265737300600082015250565b611f3480620006c36000396000f3fe608060405234801561001057600080fd5b50600436106101215760003560e01c806370a08231116100ad57806395d89b411161007157806395d89b41146102d2578063a457c2d7146102f0578063a9059cbb14610320578063dd62ed3e14610350578063f2fde38b1461038057610121565b806370a0823114610254578063715018a61461028457806379cc67901461028e5780638456cb59146102aa5780638da5cb5b146102b457610121565b8063313ce567116100f4578063313ce567146101c257806339509351146101e05780633f4ba83a1461021057806342966c681461021a5780635c975abb1461023657610121565b806306fdde0314610126578063095ea7b31461014457806318160ddd1461017457806323b872dd14610192575b600080fd5b61012e61039c565b60405161013b9190611799565b60405180910390f35b61015e600480360381019061015991906114ba565b61042e565b60405161016b919061177e565b60405180910390f35b61017c610451565b604051610189919061195b565b60405180910390f35b6101ac60048036038101906101a79190611467565b61045b565b6040516101b9919061177e565b60405180910390f35b6101ca61048a565b6040516101d79190611976565b60405180910390f35b6101fa60048036038101906101f591906114ba565b610493565b604051610207919061177e565b60405180910390f35b61021861053d565b005b610234600480360381019061022f91906114fa565b6105c3565b005b61023e6105d7565b60405161024b919061177e565b60405180910390f35b61026e600480360381019061026991906113fa565b6105ee565b60405161027b919061195b565b60405180910390f35b61028c610636565b005b6102a860048036038101906102a391906114ba565b6106be565b005b6102b26106de565b005b6102bc610764565b6040516102c99190611763565b60405180910390f35b6102da61078e565b6040516102e79190611799565b60405180910390f35b61030a600480360381019061030591906114ba565b610820565b604051610317919061177e565b60405180910390f35b61033a600480360381019061033591906114ba565b61090a565b604051610347919061177e565b60405180910390f35b61036a60048036038101906103659190611427565b61092d565b604051610377919061195b565b60405180910390f35b61039a600480360381019061039591906113fa565b6109b4565b005b6060600380546103ab90611abf565b80601f01602080910402602001604051908101604052809291908181526020018280546103d790611abf565b80156104245780601f106103f957610100808354040283529160200191610424565b820191906000526020600020905b81548152906001019060200180831161040757829003601f168201915b5050505050905090565b600080610439610ab1565b9050610446818585610ab9565b600191505092915050565b6000600254905090565b600080610466610ab1565b9050610473858285610c84565b61047e858585610d10565b60019150509392505050565b60006012905090565b60008061049e610ab1565b9050610532818585600160008673ffffffffffffffffffffffffffffffffffffffff1673ffffffffffffffffffffffffffffffffffffffff16815260200190815260200160002060008973ffffffffffffffffffffffffffffffffffffffff1673ffffffffffffffffffffffffffffffffffffffff1681526020019081526020016000205461052d91906119ad565b610ab9565b600191505092915050565b610545610ab1565b73ffffffffffffffffffffffffffffffffffffffff16610563610764565b73ffffffffffffffffffffffffffffffffffffffff16146105b9576040517f08c379a00000000000000000000000000000000000000000000000000000000081526004016105b0906118bb565b60405180910390fd5b6105c1610f91565b565b6105d46105ce610ab1565b82611033565b50565b6000600560009054906101000a900460ff16905090565b60008060008373ffffffffffffffffffffffffffffffffffffffff1673ffffffffffffffffffffffffffffffffffffffff168152602001908152602001600020549050919050565b61063e610ab1565b73ffffffffffffffffffffffffffffffffffffffff1661065c610764565b73ffffffffffffffffffffffffffffffffffffffff16146106b2576040517f08c379a00000000000000000000000000000000000000000000000000000000081526004016106a9906118bb565b60405180910390fd5b6106bc600061120a565b565b6106d0826106ca610ab1565b83610c84565b6106da8282611033565b5050565b6106e6610ab1565b73ffffffffffffffffffffffffffffffffffffffff16610704610764565b73ffffffffffffffffffffffffffffffffffffffff161461075a576040517f08c379a0000000000000000000000000000000000000000000000000000000008152600401610751906118bb565b60405180910390fd5b6107626112d0565b565b6000600560019054906101000a900473ffffffffffffffffffffffffffffffffffffffff16905090565b60606004805461079d90611abf565b80601f01602080910402602001604051908101604052809291908181526020018280546107c990611abf565b80156108165780601f106107eb57610100808354040283529160200191610816565b820191906000526020600020905b8154815290600101906020018083116107f957829003601f168201915b5050505050905090565b60008061082b610ab1565b90506000600160008373ffffffffffffffffffffffffffffffffffffffff1673ffffffffffffffffffffffffffffffffffffffff16815260200190815260200160002060008673ffffffffffffffffffffffffffffffffffffffff1673ffffffffffffffffffffffffffffffffffffffff168152602001908152602001600020549050838110156108f1576040517f08c379a00000000000000000000000000000000000000000000000000000000081526004016108e89061193b565b60405180910390fd5b6108fe8286868403610ab9565b60019250505092915050565b600080610915610ab1565b9050610922818585610d10565b600191505092915050565b6000600160008473ffffffffffffffffffffffffffffffffffffffff1673ffffffffffffffffffffffffffffffffffffffff16815260200190815260200160002060008373ffffffffffffffffffffffffffffffffffffffff1673ffffffffffffffffffffffffffffffffffffffff16815260200190815260200160002054905092915050565b6109bc610ab1565b73ffffffffffffffffffffffffffffffffffffffff166109da610764565b73ffffffffffffffffffffffffffffffffffffffff1614610a30576040517f08c379a0000000000000000000000000000000000000000000000000000000008152600401610a27906118bb565b60405180910390fd5b600073ffffffffffffffffffffffffffffffffffffffff168173ffffffffffffffffffffffffffffffffffffffff161415610aa0576040517f08c379a0000000000000000000000000000000000000000000000000000000008152600401610a979061181b565b60405180910390fd5b610aa98161120a565b50565b505050565b600033905090565b600073ffffffffffffffffffffffffffffffffffffffff168373ffffffffffffffffffffffffffffffffffffffff161415610b29576040517f08c379a0000000000000000000000000000000000000000000000000000000008152600401610b209061191b565b60405180910390fd5b600073ffffffffffffffffffffffffffffffffffffffff168273ffffffffffffffffffffffffffffffffffffffff161415610b99576040517f08c379a0000000000000000000000000000000000000000000000000000000008152600401610b909061183b565b60405180910390fd5b80600160008573ffffffffffffffffffffffffffffffffffffffff1673ffffffffffffffffffffffffffffffffffffffff16815260200190815260200160002060008473ffffffffffffffffffffffffffffffffffffffff1673ffffffffffffffffffffffffffffffffffffffff168152602001908152602001600020819055508173ffffffffffffffffffffffffffffffffffffffff168373ffffffffffffffffffffffffffffffffffffffff167f8c5be1e5ebec7d5bd14f71427d1e84f3dd0314c0f7b2291e5b200ac8c7c3b92583604051610c77919061195b565b60405180910390a3505050565b6000610c90848461092d565b90507fffffffffffffffffffffffffffffffffffffffffffffffffffffffffffffffff8114610d0a5781811015610cfc576040517f08c379a0000000000000000000000000000000000000000000000000000000008152600401610cf39061185b565b60405180910390fd5b610d098484848403610ab9565b5b50505050565b600073ffffffffffffffffffffffffffffffffffffffff168373ffffffffffffffffffffffffffffffffffffffff161415610d80576040517f08c379a0000000000000000000000000000000000000000000000000000000008152600401610d77906118fb565b60405180910390fd5b600073ffffffffffffffffffffffffffffffffffffffff168273ffffffffffffffffffffffffffffffffffffffff161415610df0576040517f08c379a0000000000000000000000000000000000000000000000000000000008152600401610de7906117bb565b60405180910390fd5b610dfb838383611373565b60008060008573ffffffffffffffffffffffffffffffffffffffff1673ffffffffffffffffffffffffffffffffffffffff16815260200190815260200160002054905081811015610e81576040517f08c379a0000000000000000000000000000000000000000000000000000000008152600401610e789061187b565b60405180910390fd5b8181036000808673ffffffffffffffffffffffffffffffffffffffff1673ffffffffffffffffffffffffffffffffffffffff16815260200190815260200160002081905550816000808573ffffffffffffffffffffffffffffffffffffffff1673ffffffffffffffffffffffffffffffffffffffff1681526020019081526020016000206000828254610f1491906119ad565b925050819055508273ffffffffffffffffffffffffffffffffffffffff168473ffffffffffffffffffffffffffffffffffffffff167fddf252ad1be2c89b69c2b068fc378daa952ba7f163c4a11628f55a4df523b3ef84604051610f78919061195b565b60405180910390a3610f8b8484846113cb565b50505050565b610f996105d7565b610fd8576040517f08c379a0000000000000000000000000000000000000000000000000000000008152600401610fcf906117db565b60405180910390fd5b6000600560006101000a81548160ff0219169083151502179055507f5db9ee0a495bf2e6ff9c91a7834c1ba4fdd244a5e8aa4e537bd38aeae4b073aa61101c610ab1565b6040516110299190611763565b60405180910390a1565b600073ffffffffffffffffffffffffffffffffffffffff168273ffffffffffffffffffffffffffffffffffffffff1614156110a3576040517f08c379a000000000000000000000000000000000000000000000000000000000815260040161109a906118db565b60405180910390fd5b6110af82600083611373565b60008060008473ffffffffffffffffffffffffffffffffffffffff1673ffffffffffffffffffffffffffffffffffffffff16815260200190815260200160002054905081811015611135576040517f08c379a000000000000000000000000000000000000000000000000000000000815260040161112c906117fb565b60405180910390fd5b8181036000808573ffffffffffffffffffffffffffffffffffffffff1673ffffffffffffffffffffffffffffffffffffffff16815260200190815260200160002081905550816002600082825461118c9190611a03565b92505081905550600073ffffffffffffffffffffffffffffffffffffffff168373ffffffffffffffffffffffffffffffffffffffff167fddf252ad1be2c89b69c2b068fc378daa952ba7f163c4a11628f55a4df523b3ef846040516111f1919061195b565b60405180910390a3611205836000846113cb565b505050565b6000600560019054906101000a900473ffffffffffffffffffffffffffffffffffffffff16905081600560016101000a81548173ffffffffffffffffffffffffffffffffffffffff021916908373ffffffffffffffffffffffffffffffffffffffff1602179055508173ffffffffffffffffffffffffffffffffffffffff168173ffffffffffffffffffffffffffffffffffffffff167f8be0079c531659141344cd1fd0a4f28419497f9722a3daafe3b4186f6b6457e060405160405180910390a35050565b6112d86105d7565b15611318576040517f08c379a000000000000000000000000000000000000000000000000000000000815260040161130f9061189b565b60405180910390fd5b6001600560006101000a81548160ff0219169083151502179055507f62e78cea01bee320cd4e420270b5ea74000d11b0c9f74754ebdbfc544b05a25861135c610ab1565b6040516113699190611763565b60405180910390a1565b61137b6105d7565b156113bb576040517f08c379a00000000000000000000000000000000000000000000000000000000081526004016113b29061189b565b60405180910390fd5b6113c6838383610aac565b505050565b505050565b6000813590506113df81611ed0565b92915050565b6000813590506113f481611ee7565b92915050565b6000602082840312156114105761140f611b4f565b5b600061141e848285016113d0565b91505092915050565b6000806040838503121561143e5761143d611b4f565b5b600061144c858286016113d0565b925050602061145d858286016113d0565b9150509250929050565b6000806000606084860312156114805761147f611b4f565b5b600061148e868287016113d0565b935050602061149f868287016113d0565b92505060406114b0868287016113e5565b9150509250925092565b600080604083850312156114d1576114d0611b4f565b5b60006114df858286016113d0565b92505060206114f0858286016113e5565b9150509250929050565b6000602082840312156115105761150f611b4f565b5b600061151e848285016113e5565b91505092915050565b61153081611a37565b82525050565b61153f81611a49565b82525050565b600061155082611991565b61155a818561199c565b935061156a818560208601611a8c565b61157381611b54565b840191505092915050565b600061158b60238361199c565b915061159682611b65565b604082019050919050565b60006115ae60148361199c565b91506115b982611bb4565b602082019050919050565b60006115d160228361199c565b91506115dc82611bdd565b604082019050919050565b60006115f460268361199c565b91506115ff82611c2c565b604082019050919050565b600061161760228361199c565b915061162282611c7b565b604082019050919050565b600061163a601d8361199c565b915061164582611cca565b602082019050919050565b600061165d60268361199c565b915061166882611cf3565b604082019050919050565b600061168060108361199c565b915061168b82611d42565b602082019050919050565b60006116a360208361199c565b91506116ae82611d6b565b602082019050919050565b60006116c660218361199c565b91506116d182611d94565b604082019050919050565b60006116e960258361199c565b91506116f482611de3565b604082019050919050565b600061170c60248361199c565b915061171782611e32565b604082019050919050565b600061172f60258361199c565b915061173a82611e81565b604082019050919050565b61174e81611a75565b82525050565b61175d81611a7f565b82525050565b60006020820190506117786000830184611527565b92915050565b60006020820190506117936000830184611536565b92915050565b600060208201905081810360008301526117b38184611545565b905092915050565b600060208201905081810360008301526117d48161157e565b9050919050565b600060208201905081810360008301526117f4816115a1565b9050919050565b60006020820190508181036000830152611814816115c4565b9050919050565b60006020820190508181036000830152611834816115e7565b9050919050565b600060208201905081810360008301526118548161160a565b9050919050565b600060208201905081810360008301526118748161162d565b9050919050565b6000602082019050818103600083015261189481611650565b9050919050565b600060208201905081810360008301526118b481611673565b9050919050565b600060208201905081810360008301526118d481611696565b9050919050565b600060208201905081810360008301526118f4816116b9565b9050919050565b60006020820190508181036000830152611914816116dc565b9050919050565b60006020820190508181036000830152611934816116ff565b9050919050565b6000602082019050818103600083015261195481611722565b9050919050565b60006020820190506119706000830184611745565b92915050565b600060208201905061198b6000830184611754565b92915050565b600081519050919050565b600082825260208201905092915050565b60006119b882611a75565b91506119c383611a75565b9250827fffffffffffffffffffffffffffffffffffffffffffffffffffffffffffffffff038211156119f8576119f7611af1565b5b828201905092915050565b6000611a0e82611a75565b9150611a1983611a75565b925082821015611a2c57611a2b611af1565b5b828203905092915050565b6000611a4282611a55565b9050919050565b60008115159050919050565b600073ffffffffffffffffffffffffffffffffffffffff82169050919050565b6000819050919050565b600060ff82169050919050565b60005b83811015611aaa578082015181840152602081019050611a8f565b83811115611ab9576000848401525b50505050565b60006002820490506001821680611ad757607f821691505b60208210811415611aeb57611aea611b20565b5b50919050565b7f4e487b7100000000000000000000000000000000000000000000000000000000600052601160045260246000fd5b7f4e487b7100000000000000000000000000000000000000000000000000000000600052602260045260246000fd5b600080fd5b6000601f19601f8301169050919050565b7f45524332303a207472616e7366657220746f20746865207a65726f206164647260008201527f6573730000000000000000000000000000000000000000000000000000000000602082015250565b7f5061757361626c653a206e6f7420706175736564000000000000000000000000600082015250565b7f45524332303a206275726e20616d6f756e7420657863656564732062616c616e60008201527f6365000000000000000000000000000000000000000000000000000000000000602082015250565b7f4f776e61626c653a206e6577206f776e657220697320746865207a65726f206160008201527f6464726573730000000000000000000000000000000000000000000000000000602082015250565b7f45524332303a20617070726f766520746f20746865207a65726f20616464726560008201527f7373000000000000000000000000000000000000000000000000000000000000602082015250565b7f45524332303a20696e73756666696369656e7420616c6c6f77616e6365000000600082015250565b7f45524332303a207472616e7366657220616d6f756e742065786365656473206260008201527f616c616e63650000000000000000000000000000000000000000000000000000602082015250565b7f5061757361626c653a2070617573656400000000000000000000000000000000600082015250565b7f4f776e61626c653a2063616c6c6572206973206e6f7420746865206f776e6572600082015250565b7f45524332303a206275726e2066726f6d20746865207a65726f2061646472657360008201527f7300000000000000000000000000000000000000000000000000000000000000602082015250565b7f45524332303a207472616e736665722066726f6d20746865207a65726f20616460008201527f6472657373000000000000000000000000000000000000000000000000000000602082015250565b7f45524332303a20617070726f76652066726f6d20746865207a65726f2061646460008201527f7265737300000000000000000000000000000000000000000000000000000000602082015250565b7f45524332303a2064656372656173656420616c6c6f77616e63652062656c6f7760008201527f207a65726f000000000000000000000000000000000000000000000000000000602082015250565b611ed981611a37565b8114611ee457600080fd5b50565b611ef081611a75565b8114611efb57600080fd5b5056fea2646970667358221220df8438e91a73a582b2e776e2ba239ebe93cd04f833ac3cc9247408e63c0dc09964736f6c63430008070033",
  "linkReferences": {},
  "deployedLinkReferences": {}
}