{
  "contractName": "Escrow",
  "abi": [
    {
      "inputs": [],
      "name": "contractTotal",
      "outputs": [
        {
          "internalType": "uint256",
          "name": "",
          "type": "uint256"
        }
      ],
      "stateMutability": "view",
      "type": "function"
    },
    {
      "inputs": [],
      "name": "escrow_purchaser",
      "outputs": [
        {
          "internalType": "address",
          "name": "",
          "type": "address"
        }
      ],
      "stateMutability": "view",
      "type": "function"
    },
    {
      "inputs": [],
      "name": "escrow_seller",
      "outputs": [
        {
          "internalType": "address",
          "name": "",
          "type": "address"
        }
      ],
      "stateMutability": "view",
      "type": "function"
    },
    {
      "inputs": [],
      "name": "receivedTotal",
      "outputs": [
        {
          "internalType": "uint256",
          "name": "",
          "type": "uint256"
        }
      ],
      "stateMutability": "view",
      "type": "function"
    }
  ],
  "bytecode": "0x608060405234801561001057600080fd5b506101e5806100206000396000f3fe608060405234801561001057600080fd5b506004361061004c5760003560e01c8063089aa8a2146100515780630a61e2d91461006f57806316713b371461008d578063ce0c722a146100ab575b600080fd5b6100596100c9565b604051610066919061013d565b60405180910390f35b6100776100ed565b6040516100849190610158565b60405180910390f35b6100956100f3565b6040516100a29190610158565b60405180910390f35b6100b36100f9565b6040516100c0919061013d565b60405180910390f35b60008054906101000a900473ffffffffffffffffffffffffffffffffffffffff1681565b60035481565b60045481565b600160009054906101000a900473ffffffffffffffffffffffffffffffffffffffff1681565b61012881610173565b82525050565b610137816101a5565b82525050565b6000602082019050610152600083018461011f565b92915050565b600060208201905061016d600083018461012e565b92915050565b600061017e82610185565b9050919050565b600073ffffffffffffffffffffffffffffffffffffffff82169050919050565b600081905091905056fea2646970667358221220fc267c4052bf11b8e57d48ea81e0303d66d9945ba011cfa6f90e6dbca57eb5f264736f6c63430008070033",
  "immutableReferences": {},
  "source": "// SPDX-License-Identifier: MIT\npragma solidity ^0.8.0;\n\n/// @title Marketplace Escrow\n/// @author Lance Seidman (Lumerin)\n/// @notice This first version will be used to hold lumerin temporarily for the Marketplace Hash Rental.\n\nimport \"./LumerinToken.sol\";\n\n\ncontract Escrow {\n    \n\n    address public escrow_purchaser; // Entity making a payment...\n    address public escrow_seller;  // Entity to receive funds...\n    address titanToken;\n    uint256 public contractTotal; // How much should be escrowed...\n    uint256 public receivedTotal; // Optional; Keep a balance for how much has been received...\n    Lumerin myToken;\n    \n    //internal function which will be called by the hashrate contract\n    function setParameters(address _titanToken) internal { \n        titanToken = _titanToken;\n        myToken = Lumerin(titanToken);\n    }\n\n    // @notice This will create a new escrow based on the seller, buyer, and total.\n    // @dev Call this in order to make a new contract. Potentially this will have a database within the contract to store/call by \n    //      the validator ONLY.\n    function createEscrow(address _escrow_seller, address _escrow_purchaser, uint256 _lumerinTotal) internal {\n        escrow_seller = _escrow_seller;\n        escrow_purchaser = _escrow_purchaser;\n        contractTotal = _lumerinTotal;\n    }\n\n    \n    // @notice Find out how much is left to fullfill the Escrow to say it's funded.\n    // @dev This is used to determine if the contract amount has been fullfilled and return how much is left to be fullfilled. \n    function dueAmount() internal returns (uint256) {\n       if (myToken.balanceOf(address(this)) > contractTotal ) {\n\t\tmyToken.transfer(escrow_purchaser, myToken.balanceOf(address(this)) - contractTotal); \n\t\treturn 0;\n       }\n       return contractTotal - myToken.balanceOf(address(this));\n    }\n    \n    // @notice Validator can request the funds to be released once determined it's safe to do.\n    // @dev Function makes sure the contract was fully funded by checking the State and if so, release the funds to the seller.\n    // sends lumerin tokens to the appropriate entities. _buyer will obtain a 0 value unless theres a penalty involved\n    function withdrawFunds(uint _seller, uint _buyer) internal {\n            myToken.transfer(escrow_seller, _seller);\n            myToken.transfer(escrow_purchaser, _buyer);\n    }\n}\n",
  "sourcePath": "/Users/joshkean/Documents/deployments/support_contracts/validator/contracts/Escrow.sol",
  "compiler": {
    "name": "solc",
    "version": "0.8.7+commit.e28d00a7.Emscripten.clang"
  },
  "schemaVersion": "3.4.2",
  "updatedAt": "2021-11-03T16:45:26.203Z",
  "devdoc": {
    "kind": "dev",
    "methods": {},
    "version": 1
  },
  "userdoc": {
    "kind": "user",
    "methods": {},
    "version": 1
  }
}